S01700004763634170706C69636174696F6E392E7372656353
S11300000C942A000C9434000C9434000C943400A6
S11300100C9434000C9434000C9434000C9434008C
S11300200C9434000C9434000C9434000C9434007C
S11300300C9434000C9434000C9434000C9434006C
S11300400C9434000C9434000C9434000C9434005C
S11300500C94340011241FBECFE5D8E0DEBFCDBF21
S11300600E9436000C944F000C94000087E087BB7C
S113007083E08BBB97E085E0C89B0BC018BA2FEFD9
S113008039E648E1215030404040E1F700C000002B
S113009098BBC99B88BBC99BEFCF98BBEDCFF894A5
S10500A0FFCF8C
S9030000FC
